{
  "_format": "hh-sol-artifact-1",
  "contractName": "MuseBoardsNFT",
  "sourceName": "contracts/MuseBoardsNFT.sol",
  "abi": [
    {
      "inputs": [
        {
          "internalType": "string",
          "name": "name_",
          "type": "string"
        },
        {
          "internalType": "string",
          "name": "symbol_",
          "type": "string"
        },
        {
          "internalType": "address",
          "name": "newOwner_",
          "type": "address"
        }
      ],
      "stateMutability": "nonpayable",
      "type": "constructor"
    },
    {
      "inputs": [],
      "name": "LSP4TokenNameNotEditable",
      "type": "error"
    },
    {
      "inputs": [],
      "name": "LSP4TokenSymbolNotEditable",
      "type": "error"
    },
    {
      "inputs": [],
      "name": "LSP8CannotSendToAddressZero",
      "type": "error"
    },
    {
      "inputs": [],
      "name": "LSP8CannotUseAddressZeroAsOperator",
      "type": "error"
    },
    {
      "inputs": [],
      "name": "LSP8InvalidTransferBatch",
      "type": "error"
    },
    {
      "inputs": [
        {
          "internalType": "bytes32",
          "name": "tokenId",
          "type": "bytes32"
        }
      ],
      "name": "LSP8NonExistentTokenId",
      "type": "error"
    },
    {
      "inputs": [
        {
          "internalType": "bytes32",
          "name": "tokenId",
          "type": "bytes32"
        },
        {
          "internalType": "address",
          "name": "caller",
          "type": "address"
        }
      ],
      "name": "LSP8NotTokenOperator",
      "type": "error"
    },
    {
      "inputs": [
        {
          "internalType": "address",
          "name": "tokenOwner",
          "type": "address"
        },
        {
          "internalType": "bytes32",
          "name": "tokenId",
          "type": "bytes32"
        },
        {
          "internalType": "address",
          "name": "caller",
          "type": "address"
        }
      ],
      "name": "LSP8NotTokenOwner",
      "type": "error"
    },
    {
      "inputs": [
        {
          "internalType": "address",
          "name": "tokenReceiver",
          "type": "address"
        }
      ],
      "name": "LSP8NotifyTokenReceiverContractMissingLSP1Interface",
      "type": "error"
    },
    {
      "inputs": [
        {
          "internalType": "address",
          "name": "tokenReceiver",
          "type": "address"
        }
      ],
      "name": "LSP8NotifyTokenReceiverIsEOA",
      "type": "error"
    },
    {
      "inputs": [
        {
          "internalType": "bytes32",
          "name": "tokenId",
          "type": "bytes32"
        }
      ],
      "name": "LSP8TokenIdAlreadyMinted",
      "type": "error"
    },
    {
      "anonymous": false,
      "inputs": [
        {
          "indexed": false,
          "internalType": "address",
          "name": "tokenContract",
          "type": "address"
        },
        {
          "indexed": false,
          "internalType": "bytes32",
          "name": "tokenId",
          "type": "bytes32"
        },
        {
          "indexed": false,
          "internalType": "bytes32",
          "name": "boardId",
          "type": "bytes32"
        }
      ],
      "name": "AddedTokenToBoard",
      "type": "event"
    },
    {
      "anonymous": false,
      "inputs": [
        {
          "indexed": true,
          "internalType": "address",
          "name": "operator",
          "type": "address"
        },
        {
          "indexed": true,
          "internalType": "address",
          "name": "tokenOwner",
          "type": "address"
        },
        {
          "indexed": true,
          "internalType": "bytes32",
          "name": "tokenId",
          "type": "bytes32"
        }
      ],
      "name": "AuthorizedOperator",
      "type": "event"
    },
    {
      "anonymous": false,
      "inputs": [
        {
          "indexed": true,
          "internalType": "bytes32",
          "name": "dataKey",
          "type": "bytes32"
        }
      ],
      "name": "DataChanged",
      "type": "event"
    },
    {
      "anonymous": false,
      "inputs": [
        {
          "indexed": true,
          "internalType": "address",
          "name": "previousOwner",
          "type": "address"
        },
        {
          "indexed": true,
          "internalType": "address",
          "name": "newOwner",
          "type": "address"
        }
      ],
      "name": "OwnershipTransferred",
      "type": "event"
    },
    {
      "anonymous": false,
      "inputs": [
        {
          "indexed": false,
          "internalType": "address",
          "name": "tokenContract",
          "type": "address"
        },
        {
          "indexed": false,
          "internalType": "bytes32",
          "name": "tokenId",
          "type": "bytes32"
        },
        {
          "indexed": false,
          "internalType": "bytes32",
          "name": "boardId",
          "type": "bytes32"
        }
      ],
      "name": "RemovedTokenToBoard",
      "type": "event"
    },
    {
      "anonymous": false,
      "inputs": [
        {
          "indexed": true,
          "internalType": "address",
          "name": "operator",
          "type": "address"
        },
        {
          "indexed": true,
          "internalType": "address",
          "name": "tokenOwner",
          "type": "address"
        },
        {
          "indexed": true,
          "internalType": "bytes32",
          "name": "tokenId",
          "type": "bytes32"
        }
      ],
      "name": "RevokedOperator",
      "type": "event"
    },
    {
      "anonymous": false,
      "inputs": [
        {
          "indexed": false,
          "internalType": "address",
          "name": "operator",
          "type": "address"
        },
        {
          "indexed": true,
          "internalType": "address",
          "name": "from",
          "type": "address"
        },
        {
          "indexed": true,
          "internalType": "address",
          "name": "to",
          "type": "address"
        },
        {
          "indexed": true,
          "internalType": "bytes32",
          "name": "tokenId",
          "type": "bytes32"
        },
        {
          "indexed": false,
          "internalType": "bool",
          "name": "force",
          "type": "bool"
        },
        {
          "indexed": false,
          "internalType": "bytes",
          "name": "data",
          "type": "bytes"
        }
      ],
      "name": "Transfer",
      "type": "event"
    },
    {
      "inputs": [
        {
          "internalType": "bytes32",
          "name": "boardId",
          "type": "bytes32"
        },
        {
          "internalType": "address",
          "name": "tokenContract",
          "type": "address"
        },
        {
          "internalType": "bytes32",
          "name": "tokenId",
          "type": "bytes32"
        },
        {
          "internalType": "bytes",
          "name": "metadata",
          "type": "bytes"
        }
      ],
      "name": "addTokenToBoard",
      "outputs": [
        {
          "internalType": "bytes32",
          "name": "key",
          "type": "bytes32"
        }
      ],
      "stateMutability": "nonpayable",
      "type": "function"
    },
    {
      "inputs": [
        {
          "internalType": "address",
          "name": "operator",
          "type": "address"
        },
        {
          "internalType": "bytes32",
          "name": "tokenId",
          "type": "bytes32"
        }
      ],
      "name": "authorizeOperator",
      "outputs": [],
      "stateMutability": "nonpayable",
      "type": "function"
    },
    {
      "inputs": [
        {
          "internalType": "address",
          "name": "tokenOwner",
          "type": "address"
        }
      ],
      "name": "balanceOf",
      "outputs": [
        {
          "internalType": "uint256",
          "name": "",
          "type": "uint256"
        }
      ],
      "stateMutability": "view",
      "type": "function"
    },
    {
      "inputs": [
        {
          "internalType": "bytes32",
          "name": "boardId",
          "type": "bytes32"
        }
      ],
      "name": "boardSize",
      "outputs": [
        {
          "internalType": "uint256",
          "name": "boardLength",
          "type": "uint256"
        }
      ],
      "stateMutability": "view",
      "type": "function"
    },
    {
      "inputs": [
        {
          "internalType": "bytes32",
          "name": "tokenId",
          "type": "bytes32"
        },
        {
          "internalType": "bytes",
          "name": "data",
          "type": "bytes"
        }
      ],
      "name": "burn",
      "outputs": [],
      "stateMutability": "nonpayable",
      "type": "function"
    },
    {
      "inputs": [
        {
          "internalType": "bytes32",
          "name": "boardId",
          "type": "bytes32"
        },
        {
          "internalType": "uint256",
          "name": "index",
          "type": "uint256"
        }
      ],
      "name": "getBoardTokenAt",
      "outputs": [
        {
          "internalType": "bytes32",
          "name": "pinKey",
          "type": "bytes32"
        }
      ],
      "stateMutability": "view",
      "type": "function"
    },
    {
      "inputs": [
        {
          "internalType": "bytes32[]",
          "name": "dataKeys",
          "type": "bytes32[]"
        }
      ],
      "name": "getData",
      "outputs": [
        {
          "internalType": "bytes[]",
          "name": "dataValues",
          "type": "bytes[]"
        }
      ],
      "stateMutability": "view",
      "type": "function"
    },
    {
      "inputs": [
        {
          "internalType": "bytes32",
          "name": "dataKey",
          "type": "bytes32"
        }
      ],
      "name": "getData",
      "outputs": [
        {
          "internalType": "bytes",
          "name": "dataValue",
          "type": "bytes"
        }
      ],
      "stateMutability": "view",
      "type": "function"
    },
    {
      "inputs": [
        {
          "internalType": "bytes32",
          "name": "tokenId",
          "type": "bytes32"
        }
      ],
      "name": "getOperatorsOf",
      "outputs": [
        {
          "internalType": "address[]",
          "name": "",
          "type": "address[]"
        }
      ],
      "stateMutability": "view",
      "type": "function"
    },
    {
      "inputs": [
        {
          "internalType": "address",
          "name": "operator",
          "type": "address"
        },
        {
          "internalType": "bytes32",
          "name": "tokenId",
          "type": "bytes32"
        }
      ],
      "name": "isOperatorFor",
      "outputs": [
        {
          "internalType": "bool",
          "name": "",
          "type": "bool"
        }
      ],
      "stateMutability": "view",
      "type": "function"
    },
    {
      "inputs": [
        {
          "internalType": "bytes32",
          "name": "boardId",
          "type": "bytes32"
        },
        {
          "internalType": "address",
          "name": "tokenContract",
          "type": "address"
        },
        {
          "internalType": "bytes32",
          "name": "tokenId",
          "type": "bytes32"
        }
      ],
      "name": "isTokenOnBoard",
      "outputs": [
        {
          "internalType": "bool",
          "name": "isPresent",
          "type": "bool"
        }
      ],
      "stateMutability": "view",
      "type": "function"
    },
    {
      "inputs": [
        {
          "internalType": "address",
          "name": "to",
          "type": "address"
        },
        {
          "internalType": "bytes32",
          "name": "tokenId",
          "type": "bytes32"
        },
        {
          "internalType": "bool",
          "name": "force",
          "type": "bool"
        },
        {
          "internalType": "bytes",
          "name": "data",
          "type": "bytes"
        }
      ],
      "name": "mint",
      "outputs": [],
      "stateMutability": "nonpayable",
      "type": "function"
    },
    {
      "inputs": [],
      "name": "owner",
      "outputs": [
        {
          "internalType": "address",
          "name": "",
          "type": "address"
        }
      ],
      "stateMutability": "view",
      "type": "function"
    },
    {
      "inputs": [
        {
          "internalType": "bytes32",
          "name": "boardId",
          "type": "bytes32"
        },
        {
          "internalType": "address",
          "name": "tokenContract",
          "type": "address"
        },
        {
          "internalType": "bytes32",
          "name": "tokenId",
          "type": "bytes32"
        }
      ],
      "name": "removeTokenFromBoard",
      "outputs": [
        {
          "internalType": "bytes32",
          "name": "key",
          "type": "bytes32"
        }
      ],
      "stateMutability": "nonpayable",
      "type": "function"
    },
    {
      "inputs": [],
      "name": "renounceOwnership",
      "outputs": [],
      "stateMutability": "nonpayable",
      "type": "function"
    },
    {
      "inputs": [
        {
          "internalType": "address",
          "name": "operator",
          "type": "address"
        },
        {
          "internalType": "bytes32",
          "name": "tokenId",
          "type": "bytes32"
        }
      ],
      "name": "revokeOperator",
      "outputs": [],
      "stateMutability": "nonpayable",
      "type": "function"
    },
    {
      "inputs": [
        {
          "internalType": "bytes32[]",
          "name": "dataKeys",
          "type": "bytes32[]"
        },
        {
          "internalType": "bytes[]",
          "name": "dataValues",
          "type": "bytes[]"
        }
      ],
      "name": "setData",
      "outputs": [],
      "stateMutability": "nonpayable",
      "type": "function"
    },
    {
      "inputs": [
        {
          "internalType": "bytes32",
          "name": "dataKey",
          "type": "bytes32"
        },
        {
          "internalType": "bytes",
          "name": "dataValue",
          "type": "bytes"
        }
      ],
      "name": "setData",
      "outputs": [],
      "stateMutability": "nonpayable",
      "type": "function"
    },
    {
      "inputs": [
        {
          "internalType": "bytes4",
          "name": "interfaceId",
          "type": "bytes4"
        }
      ],
      "name": "supportsInterface",
      "outputs": [
        {
          "internalType": "bool",
          "name": "",
          "type": "bool"
        }
      ],
      "stateMutability": "view",
      "type": "function"
    },
    {
      "inputs": [
        {
          "internalType": "uint256",
          "name": "index",
          "type": "uint256"
        }
      ],
      "name": "tokenAt",
      "outputs": [
        {
          "internalType": "bytes32",
          "name": "",
          "type": "bytes32"
        }
      ],
      "stateMutability": "view",
      "type": "function"
    },
    {
      "inputs": [
        {
          "internalType": "address",
          "name": "tokenOwner",
          "type": "address"
        }
      ],
      "name": "tokenIdsOf",
      "outputs": [
        {
          "internalType": "bytes32[]",
          "name": "",
          "type": "bytes32[]"
        }
      ],
      "stateMutability": "view",
      "type": "function"
    },
    {
      "inputs": [
        {
          "internalType": "bytes32",
          "name": "tokenId",
          "type": "bytes32"
        }
      ],
      "name": "tokenOwnerOf",
      "outputs": [
        {
          "internalType": "address",
          "name": "",
          "type": "address"
        }
      ],
      "stateMutability": "view",
      "type": "function"
    },
    {
      "inputs": [],
      "name": "totalSupply",
      "outputs": [
        {
          "internalType": "uint256",
          "name": "",
          "type": "uint256"
        }
      ],
      "stateMutability": "view",
      "type": "function"
    },
    {
      "inputs": [
        {
          "internalType": "address",
          "name": "from",
          "type": "address"
        },
        {
          "internalType": "address",
          "name": "to",
          "type": "address"
        },
        {
          "internalType": "bytes32",
          "name": "tokenId",
          "type": "bytes32"
        },
        {
          "internalType": "bool",
          "name": "force",
          "type": "bool"
        },
        {
          "internalType": "bytes",
          "name": "data",
          "type": "bytes"
        }
      ],
      "name": "transfer",
      "outputs": [],
      "stateMutability": "nonpayable",
      "type": "function"
    },
    {
      "inputs": [
        {
          "internalType": "address[]",
          "name": "from",
          "type": "address[]"
        },
        {
          "internalType": "address[]",
          "name": "to",
          "type": "address[]"
        },
        {
          "internalType": "bytes32[]",
          "name": "tokenId",
          "type": "bytes32[]"
        },
        {
          "internalType": "bool",
          "name": "force",
          "type": "bool"
        },
        {
          "internalType": "bytes[]",
          "name": "data",
          "type": "bytes[]"
        }
      ],
      "name": "transferBatch",
      "outputs": [],
      "stateMutability": "nonpayable",
      "type": "function"
    },
    {
      "inputs": [
        {
          "internalType": "address",
          "name": "newOwner",
          "type": "address"
        }
      ],
      "name": "transferOwnership",
      "outputs": [],
      "stateMutability": "nonpayable",
      "type": "function"
    }
  ],
  "bytecode": "0x60806040523480156200001157600080fd5b5060405162002b4b38038062002b4b833981016040819052620000349162000340565b8282828282828062000051816200012b60201b62000e221760201c565b50620000a87feafec4d89fa9619884b60000a4d96624a38f7ac2d8d9a604ecf07c12c77e480c60001b604051806040016040528060048152602001632936598960e21b8152506200019260201b62000e941760201c565b620000e27fdeba1e292f8ba88238e10ab3c7f88bd4be4fac56cad5194b6ecceaf653468af160001b846200019260201b62000e941760201c565b6200011c7f2f0a68ab07768e01943a599e73362a0e17a63a72e94dd2e384d2c1d4db93275660001b836200019260201b62000e941760201c565b50505050505050505062000420565b6000546001600160a01b038281169116146200018f57600080546001600160a01b038381166001600160a01b0319831681178455604051919092169283917f8be0079c531659141344cd1fd0a4f28419497f9722a3daafe3b4186f6b6457e09190a3505b50565b60008281526001602090815260409091208251620001b392840190620001e3565b5060405182907fcdf4e344c0d23d4cdd0474039d176c55b19d531070dbe17856bfb993a5b5720b90600090a25050565b828054620001f190620003cd565b90600052602060002090601f01602090048101928262000215576000855562000260565b82601f106200023057805160ff191683800117855562000260565b8280016001018555821562000260579182015b828111156200026057825182559160200191906001019062000243565b506200026e92915062000272565b5090565b5b808211156200026e576000815560010162000273565b600082601f8301126200029b57600080fd5b81516001600160401b0380821115620002b857620002b86200040a565b604051601f8301601f19908116603f01168101908282118183101715620002e357620002e36200040a565b816040528381526020925086838588010111156200030057600080fd5b600091505b8382101562000324578582018301518183018401529082019062000305565b83821115620003365760008385830101525b9695505050505050565b6000806000606084860312156200035657600080fd5b83516001600160401b03808211156200036e57600080fd5b6200037c8783880162000289565b945060208601519150808211156200039357600080fd5b50620003a28682870162000289565b604086015190935090506001600160a01b0381168114620003c257600080fd5b809150509250925092565b600181811c90821680620003e257607f821691505b602082108114156200040457634e487b7160e01b600052602260045260246000fd5b50919050565b634e487b7160e01b600052604160045260246000fd5b61271b80620004306000396000f3fe608060405234801561001057600080fd5b50600436106101ae5760003560e01c80636c79b70b116100ee57806392a91a3a11610097578063af255b6111610071578063af255b61146103b7578063c6e52961146103ca578063cf5182ba146103dd578063f2fde38b146103f057600080fd5b806392a91a3a14610364578063a3b261f214610384578063ab28cf02146103a457600080fd5b806379dc0f3a116100c857806379dc0f3a1461032d5780637f23690c146103405780638da5cb5b1461035357600080fd5b80636c79b70b146102ff57806370a0823114610312578063715018a61461032557600080fd5b80632af643081161015b5780634e3e6e9c116101355780634e3e6e9c14610299578063511b6952146102b957806354f6127f146102cc57806355908868146102ec57600080fd5b80632af64308146102535780632ba071a11461026657806349a6078d1461027957600080fd5b806318160ddd1161018c57806318160ddd14610203578063217b2270146102155780632a3654a41461024057600080fd5b806301ffc9a7146101b35780630b0c6d82146101db57806314a6e293146101f0575b600080fd5b6101c66101c13660046122bb565b610403565b60405190151581526020015b60405180910390f35b6101ee6101e9366004611f7b565b610447565b005b6101ee6101fe3660046120f9565b6104f5565b6002545b6040519081526020016101d2565b61022861022336600461217a565b6105c9565b6040516001600160a01b0390911681526020016101d2565b6101c661024e366004611f7b565b610602565b61020761026136600461217a565b61061e565b6101c6610274366004612193565b610635565b61028c61028736600461217a565b6106ab565b6040516101d29190612444565b6102ac6102a73660046120c4565b6106cd565b6040516101d291906124c9565b6101ee6102c7366004611f00565b610781565b6102df6102da36600461217a565b6107e9565b6040516101d29190612544565b6101ee6102fa36600461200f565b6107f4565b6101ee61030d36600461225c565b6108da565b610207610320366004611ee5565b6108f0565b6101ee610911565b61020761033b366004612299565b610925565b6101ee61034e36600461225c565b6109d6565b6000546001600160a01b0316610228565b61020761037236600461217a565b60009081526006602052604090205490565b610397610392366004611ee5565b6109e8565b6040516101d29190612491565b6102076103b2366004612193565b610a0c565b6101ee6103c5366004611fa5565b610afc565b6102076103d83660046121c8565b610b10565b6101ee6103eb366004611f7b565b610c9a565b6101ee6103fe366004611ee5565b610d92565b60006001600160e01b031982167f49399145000000000000000000000000000000000000000000000000000000001480610441575061044182610ee3565b92915050565b6000610452826105c9565b9050336001600160a01b038216811461049d57604051632d938f5160e11b81526001600160a01b03808416600483015260248201859052821660448201526064015b60405180910390fd5b6001600160a01b0384166104c457604051639577b8b360e01b815260040160405180910390fd5b836001600160a01b0316826001600160a01b031614156104e45750505050565b6104ef848385610f31565b50505050565b6104fd610f90565b80518251146105745760405162461bcd60e51b815260206004820152602660248201527f4b657973206c656e677468206e6f7420657175616c20746f2076616c7565732060448201527f6c656e67746800000000000000000000000000000000000000000000000000006064820152608401610494565b60005b82518110156105c4576105bc838281518110610595576105956126ab565b60200260200101518383815181106105af576105af6126ab565b6020026020010151610ff9565b600101610577565b505050565b6000818152600360205260408120546001600160a01b03168061044157604051635747cd1b60e11b815260048101849052602401610494565b600061060d826110b7565b61061783836110ef565b9392505050565b60008181526008602052604081206104419061114d565b6040516bffffffffffffffffffffffff19606084811b82166020840152603483018490526054830186905230901b166074820152600090819060880160408051601f1981840301815291815281516020928301206000888152600890935291209091506106a29082611157565b95945050505050565b60606106b6826110b7565b60008281526005602052604090206104419061116f565b6060815167ffffffffffffffff8111156106e9576106e96126c1565b60405190808252806020026020018201604052801561071c57816020015b60608152602001906001900390816107075790505b50905060005b825181101561077b5761074d838281518110610740576107406126ab565b602002602001015161117c565b82828151811061075f5761075f6126ab565b60200260200101819052506107748160010190565b9050610722565b50919050565b3361078c81856110ef565b6107d4576040517f1294d2a9000000000000000000000000000000000000000000000000000000008152600481018590526001600160a01b0382166024820152604401610494565b6107e1868686868661121e565b505050505050565b60606104418261117c565b8351855114158061080757508251855114155b8061081457508051855114155b1561084b576040517f93a8311900000000000000000000000000000000000000000000000000000000815260040160405180910390fd5b60005b85518110156107e1576108c886828151811061086c5761086c6126ab565b6020026020010151868381518110610886576108866126ab565b60200260200101518684815181106108a0576108a06126ab565b6020026020010151868686815181106108bb576108bb6126ab565b6020026020010151610781565b806108d281612664565b91505061084e565b6108e2610f90565b6108ec8282611397565b5050565b6001600160a01b03811660009081526004602052604081206104419061114d565b610919610f90565b6109236000610e22565b565b6000828152600860205260408120819061093e9061114d565b9050808311156109b65760405162461bcd60e51b815260206004820152602160248201527f496e6465782063616e6e6f74206265206772656174657220746861742073697a60448201527f65000000000000000000000000000000000000000000000000000000000000006064820152608401610494565b60008481526008602052604090206109ce908461145d565b949350505050565b6109de610f90565b6108ec8282610ff9565b6001600160a01b038116600090815260046020526040902060609061044190611469565b6000610a16610f90565b6040516bffffffffffffffffffffffff19606085811b82166020840152603483018590526054830187905230901b16607482015260880160408051601f198184030181529181528151602092830120600087815260089093529120909150610a7e9082611157565b610aca5760405162461bcd60e51b815260206004820152601a60248201527f546f6b656e206e6f742070726573656e74206f6e20626f6172640000000000006044820152606401610494565b6000848152600860205260409020610ae29082611474565b506106178160405180602001604052806000815250610ff9565b610b04610f90565b6104ef84848484611480565b6000610b1a610f90565b6040516bffffffffffffffffffffffff19606087811b82166020840152603483018790526054830189905230901b16607482015260880160408051601f198184030181529181528151602092830120600089815260089093529120909150610b829082611157565b15610bcf5760405162461bcd60e51b815260206004820152601e60248201527f546f6b656e20616c72656164792070726573656e74206f6e20626f61726400006044820152606401610494565b6000868152600860205260409020610be790826115a6565b5060408051606087901b6bffffffffffffffffffffffff191660208201528151808203601401815260348201909252600091610c2b918790879087906054016123e8565b6040516020818303038152906040529050610c468282610ff9565b604080516001600160a01b0388168152602081018790529081018890527f410ad3571ead3f4678a5f6f4e5f56330480d721bd3b2b320911d9eaf7c10139d9060600160405180910390a15095945050505050565b6000610ca5826105c9565b9050336001600160a01b0382168114610ceb57604051632d938f5160e11b81526001600160a01b0380841660048301526024820185905282166044820152606401610494565b6001600160a01b038416610d1257604051639577b8b360e01b815260040160405180910390fd5b836001600160a01b0316826001600160a01b03161415610d325750505050565b6000838152600560205260409020610d4a90856115b2565b5082826001600160a01b0316856001600160a01b03167f34b797fc5a526f7bf1d2b5de25f6564fd85ae364e3ee939aee7c1ac27871a98860405160405180910390a450505050565b610d9a610f90565b6001600160a01b038116610e165760405162461bcd60e51b815260206004820152602660248201527f4f776e61626c653a206e6577206f776e657220697320746865207a65726f206160448201527f64647265737300000000000000000000000000000000000000000000000000006064820152608401610494565b610e1f81610e22565b50565b6000546001600160a01b03828116911614610e1f57600080546001600160a01b0383811673ffffffffffffffffffffffffffffffffffffffff19831681178455604051919092169283917f8be0079c531659141344cd1fd0a4f28419497f9722a3daafe3b4186f6b6457e09190a35050565b60008281526001602090815260409091208251610eb392840190611c74565b5060405182907fcdf4e344c0d23d4cdd0474039d176c55b19d531070dbe17856bfb993a5b5720b90600090a25050565b60006001600160e01b031982167f714df77c00000000000000000000000000000000000000000000000000000000148061044157506301ffc9a760e01b6001600160e01b0319831614610441565b6000818152600560205260409020610f4990846115c7565b5080826001600160a01b0316846001600160a01b03167f17d5389f6ab6adb2647dfa0aa365c323d37adacc30b33a65310b6158ce1373d560405160405180910390a4505050565b33610fa36000546001600160a01b031690565b6001600160a01b0316146109235760405162461bcd60e51b815260206004820181905260248201527f4f776e61626c653a2063616c6c6572206973206e6f7420746865206f776e65726044820152606401610494565b7fdeba1e292f8ba88238e10ab3c7f88bd4be4fac56cad5194b6ecceaf653468af1821415611053576040517f85c169bd00000000000000000000000000000000000000000000000000000000815260040160405180910390fd5b7f2f0a68ab07768e01943a599e73362a0e17a63a72e94dd2e384d2c1d4db9327568214156110ad576040517f76755b3800000000000000000000000000000000000000000000000000000000815260040160405180910390fd5b6108ec8282610e94565b6000818152600360205260409020546001600160a01b0316610e1f57604051635747cd1b60e11b815260048101829052602401610494565b6000806110fb836105c9565b9050806001600160a01b0316846001600160a01b031614806109ce575060008381526005602052604090206109ce90856001600160a01b03811660009081526001830160205260408120541515610617565b6000610441825490565b60008181526001830160205260408120541515610617565b60606000610617836115dc565b60008181526001602052604090208054606091906111999061262f565b80601f01602080910402602001604051908101604052809291908181526020018280546111c59061262f565b80156112125780601f106111e757610100808354040283529160200191611212565b820191906000526020600020905b8154815290600101906020018083116111f557829003601f168201915b50505050509050919050565b6000611229846105c9565b9050856001600160a01b0316816001600160a01b03161461127757604051632d938f5160e11b81526001600160a01b0380831660048301526024820186905287166044820152606401610494565b6001600160a01b03851661129e576040516324ecef4d60e01b815260040160405180910390fd5b336112aa878787611637565b6112b48786611642565b6001600160a01b03871660009081526004602052604090206112d69086611474565b506001600160a01b03861660009081526004602052604090206112f990866115a6565b5060008581526003602052604090819020805473ffffffffffffffffffffffffffffffffffffffff19166001600160a01b0389811691821790925591518792918a16907fb333c813a7426a7a11e2b190cad52c44119421594b47f6f32ace6d8c7207b2bf9061136d9086908a908a9061241a565b60405180910390a46113818787878661169a565b61138e878787878761177d565b50505050505050565b60006113a2836105c9565b9050336113b182600086611637565b6113bb8285611642565b6001600160a01b03821660009081526004602052604090206113dd9085611474565b50600084815260036020526040808220805473ffffffffffffffffffffffffffffffffffffffff19169055518591906001600160a01b038516907fb333c813a7426a7a11e2b190cad52c44119421594b47f6f32ace6d8c7207b2bf9061144890869085908a9061241a565b60405180910390a46104ef826000868661169a565b600061061783836118f6565b6060610441826115dc565b60006106178383611920565b6001600160a01b0384166114a7576040516324ecef4d60e01b815260040160405180910390fd5b6000838152600360205260409020546001600160a01b0316156114f9576040517f34c7b51100000000000000000000000000000000000000000000000000000000815260048101849052602401610494565b3361150660008686611637565b6001600160a01b038516600090815260046020526040902061152890856115a6565b50600084815260036020526040808220805473ffffffffffffffffffffffffffffffffffffffff19166001600160a01b03891690811790915590518692907fb333c813a7426a7a11e2b190cad52c44119421594b47f6f32ace6d8c7207b2bf906115979086908990899061241a565b60405180910390a45050505050565b60006106178383611a13565b6000610617836001600160a01b038416611a13565b6000610617836001600160a01b038416611920565b60608160000180548060200260200160405190810160405280929190818152602001828054801561121257602002820191906000526020600020905b8154815260200190600101908083116116185750505050509050919050565b6105c4838383611a62565b60008181526005602052604081209061165a8261114d565b905060005b81811015611693576000611673848261145d565b9050611680818787610f31565b508061168b81612664565b91505061165f565b5050505050565b6116ab84631aed5a8560e21b611b24565b156104ef576000848484846040516020016116c9949392919061237f565b60408051601f1981840301815290829052631aed5a8560e21b825291506001600160a01b03861690636bb56a1490611727907f3724c94f0815e936299cca424da4140752198e0beb7931a6e0925d11bc97544c90859060040161252b565b600060405180830381600087803b15801561174157600080fd5b505af1158015611755573d6000803e3d6000fd5b505050506040513d6000823e601f3d908101601f191682016040526107e191908101906122e5565b61178e84631aed5a8560e21b611b24565b15611867576000858585846040516020016117ac949392919061237f565b60408051601f1981840301815290829052631aed5a8560e21b825291506001600160a01b03861690636bb56a149061180a907fc7a120a42b6057a0cbed111fbbfbd52fcd96748c04394f77fc2c3adbe0391e0190859060040161252b565b600060405180830381600087803b15801561182457600080fd5b505af1158015611838573d6000803e3d6000fd5b505050506040513d6000823e601f3d908101601f1916820160405261186091908101906122e5565b5050611693565b81611693576001600160a01b0384163b156118b9576040517f4349776d0000000000000000000000000000000000000000000000000000000081526001600160a01b0385166004820152602401610494565b6040517f031731370000000000000000000000000000000000000000000000000000000081526001600160a01b0385166004820152602401610494565b600082600001828154811061190d5761190d6126ab565b9060005260206000200154905092915050565b60008181526001830160205260408120548015611a095760006119446001836125ec565b8554909150600090611958906001906125ec565b90508181146119bd576000866000018281548110611978576119786126ab565b906000526020600020015490508087600001848154811061199b5761199b6126ab565b6000918252602080832090910192909255918252600188019052604090208390555b85548690806119ce576119ce612695565b600190038181906000526020600020016000905590558560010160008681526020019081526020016000206000905560019350505050610441565b6000915050610441565b6000818152600183016020526040812054611a5a57508154600181810184556000848152602080822090930184905584548482528286019093526040902091909155610441565b506000610441565b6001600160a01b038316611a975760025460008181526006602090815260408083208590558483526007909152902055611b19565b6001600160a01b038216611b195760006001600254611ab691906125ec565b60008381526007602052604090205490915081811015611af8576000828152600660209081526040808320548484528184208190558352600790915290208190555b50600090815260066020908152604080832083905583835260079091528120555b6105c4838383611c22565b604080516001600160e01b0319831660248083019190915282518083039091018152604490910182526020810180517bffffffffffffffffffffffffffffffffffffffffffffffffffffffff166301ffc9a760e01b179052905160009190829081906001600160a01b0387169061753090611ba09086906123cc565b6000604051808303818686fa925050503d8060008114611bdc576040519150601f19603f3d011682016040523d82523d6000602084013e611be1565b606091505b5091509150602081511015611bfc5760009350505050610441565b818015611c18575080806020019051810190611c18919061215d565b9695505050505050565b6001600160a01b038316611c4957600160026000828254611c4391906125d4565b90915550505b6001600160a01b0382166105c457600160026000828254611c6a91906125ec565b9091555050505050565b828054611c809061262f565b90600052602060002090601f016020900481019282611ca25760008555611ce8565b82601f10611cbb57805160ff1916838001178555611ce8565b82800160010185558215611ce8579182015b82811115611ce8578251825591602001919060010190611ccd565b50611cf4929150611cf8565b5090565b5b80821115611cf45760008155600101611cf9565b80356001600160a01b0381168114611d2457600080fd5b919050565b600082601f830112611d3a57600080fd5b81356020611d4f611d4a83612588565b612557565b80838252828201915082860187848660051b8901011115611d6f57600080fd5b60005b85811015611d9557611d8382611d0d565b84529284019290840190600101611d72565b5090979650505050505050565b600082601f830112611db357600080fd5b81356020611dc3611d4a83612588565b80838252828201915082860187848660051b8901011115611de357600080fd5b60005b85811015611d9557813584529284019290840190600101611de6565b600082601f830112611e1357600080fd5b81356020611e23611d4a83612588565b80838252828201915082860187848660051b8901011115611e4357600080fd5b6000805b86811015611e8657823567ffffffffffffffff811115611e65578283fd5b611e738b88838d0101611e94565b8652509385019391850191600101611e47565b509198975050505050505050565b600082601f830112611ea557600080fd5b8135611eb3611d4a826125ac565b818152846020838601011115611ec857600080fd5b816020850160208301376000918101602001919091529392505050565b600060208284031215611ef757600080fd5b61061782611d0d565b600080600080600060a08688031215611f1857600080fd5b611f2186611d0d565b9450611f2f60208701611d0d565b9350604086013592506060860135611f46816126d7565b9150608086013567ffffffffffffffff811115611f6257600080fd5b611f6e88828901611e94565b9150509295509295909350565b60008060408385031215611f8e57600080fd5b611f9783611d0d565b946020939093013593505050565b60008060008060808587031215611fbb57600080fd5b611fc485611d0d565b9350602085013592506040850135611fdb816126d7565b9150606085013567ffffffffffffffff811115611ff757600080fd5b61200387828801611e94565b91505092959194509250565b600080600080600060a0868803121561202757600080fd5b853567ffffffffffffffff8082111561203f57600080fd5b61204b89838a01611d29565b9650602088013591508082111561206157600080fd5b61206d89838a01611d29565b9550604088013591508082111561208357600080fd5b61208f89838a01611da2565b9450606088013591506120a1826126d7565b909250608087013590808211156120b757600080fd5b50611f6e88828901611e02565b6000602082840312156120d657600080fd5b813567ffffffffffffffff8111156120ed57600080fd5b6109ce84828501611da2565b6000806040838503121561210c57600080fd5b823567ffffffffffffffff8082111561212457600080fd5b61213086838701611da2565b9350602085013591508082111561214657600080fd5b5061215385828601611e02565b9150509250929050565b60006020828403121561216f57600080fd5b8151610617816126d7565b60006020828403121561218c57600080fd5b5035919050565b6000806000606084860312156121a857600080fd5b833592506121b860208501611d0d565b9150604084013590509250925092565b6000806000806000608086880312156121e057600080fd5b853594506121f060208701611d0d565b935060408601359250606086013567ffffffffffffffff8082111561221457600080fd5b818801915088601f83011261222857600080fd5b81358181111561223757600080fd5b89602082850101111561224957600080fd5b9699959850939650602001949392505050565b6000806040838503121561226f57600080fd5b82359150602083013567ffffffffffffffff81111561228d57600080fd5b61215385828601611e94565b600080604083850312156122ac57600080fd5b50508035926020909101359150565b6000602082840312156122cd57600080fd5b81356001600160e01b03198116811461061757600080fd5b6000602082840312156122f757600080fd5b815167ffffffffffffffff81111561230e57600080fd5b8201601f8101841361231f57600080fd5b805161232d611d4a826125ac565b81815285602083850101111561234257600080fd5b6106a2826020830160208601612603565b6000815180845261236b816020860160208601612603565b601f01601f19169290920160200192915050565b60006bffffffffffffffffffffffff19808760601b168352808660601b1660148401525083602883015282516123bc816048850160208701612603565b9190910160480195945050505050565b600082516123de818460208701612603565b9190910192915050565b600085516123fa818460208a01612603565b820185815283856020830137600093016020019283525090949350505050565b6001600160a01b038416815282151560208201526060604082015260006106a26060830184612353565b6020808252825182820181905260009190848201906040850190845b818110156124855783516001600160a01b031683529284019291840191600101612460565b50909695505050505050565b6020808252825182820181905260009190848201906040850190845b81811015612485578351835292840192918401916001016124ad565b6000602080830181845280855180835260408601915060408160051b870101925083870160005b8281101561251e57603f1988860301845261250c858351612353565b945092850192908501906001016124f0565b5092979650505050505050565b8281526040602082015260006109ce6040830184612353565b6020815260006106176020830184612353565b604051601f8201601f1916810167ffffffffffffffff81118282101715612580576125806126c1565b604052919050565b600067ffffffffffffffff8211156125a2576125a26126c1565b5060051b60200190565b600067ffffffffffffffff8211156125c6576125c66126c1565b50601f01601f191660200190565b600082198211156125e7576125e761267f565b500190565b6000828210156125fe576125fe61267f565b500390565b60005b8381101561261e578181015183820152602001612606565b838111156104ef5750506000910152565b600181811c9082168061264357607f821691505b6020821081141561077b57634e487b7160e01b600052602260045260246000fd5b60006000198214156126785761267861267f565b5060010190565b634e487b7160e01b600052601160045260246000fd5b634e487b7160e01b600052603160045260246000fd5b634e487b7160e01b600052603260045260246000fd5b634e487b7160e01b600052604160045260246000fd5b8015158114610e1f57600080fdfea264697066735822122072c70930b614bd3b7c514f3479a6faa9a8da593a608ab36a9cdf9eeff895711e64736f6c63430008070033",
  "linkReferences": {},
  "deployedLinkReferences": {}
}